:100B8100438901758CFC758A50D28C308DFDC28CE5
:030B9100C28D22F0
:100B4D008F218E208D1F8C1E781E74FF120960EC74
:0B0B5D004D4E4F6005120B8180EE2210
:080AC3008F258E248D238C2267
:100ACB00782274FF120960EC4D4E4F60127BFAAF27
:0F0ADB00031BEF70FA7BF7AF031BEF60E380F8AC
:010AEA0022E9
:100800000D0A6D656E750D0A612E666C6F6F723024
:100810000D0A622E666C6F6F72310D0A632E666C64
:100820006F6F72320D0A642E666C6F6F72330D0A31
:10083000000D0A666C6F6F72300D0A312E6C6F619D
:1008400064310D0A322E6C6F6164320D0A000D0A9C
:10085000666C6F6F72310D0A312E6C6F6164310DF1
:100860000A322E6C6F6164320D0A000D0A666C6FDD
:100870006F72320D0A312E6C6F6164310D0A322EA7
:100880006C6F6164320D0A000D0A666C6F6F723313
:100890000D0A312E6C6F6164310D0A322E6C6F615E
:0508A00064320D0A00A6
:100B0F000315FF08000308FF0831030BFF084E030E
:090B1F000EFF086B0311FF0888AA
:03002300020BCA03
:100BCA00309807C298859914C2B2309902C29932F4
:03000300020A4BA3
:100A4B00C0E0C0F0C083C082C0D075D000C000C071
:100A5B0001C002C003C004C005C006C007D2B21259
:100A6B000A88D007D006D005D004D003D002D0011D
:0D0A7B00D000D0D0D082D083D0F0D0E032B7
:0B0BF400D2A8D2AFD288C291C29022DA
:100A020075985043892012097E0A2D00001C200A85
:100A120032000025800A37000038400A3C0000708E
:100A2200800A3E0000E10000000A44758DFC80123D
:100A3200758DFD800D758DFE80088003438780755E
:090A42008DFFD28ED2ACD2AF229E
:080BFF008F993099FDC2992283
:060AEB008B1B8A1C891D13
:100AF100E4FEAB1BAA1CA91DEEFD3395E08D82F52A
:0D0B010083120931FF6006120BFF0E80E524
:010B0E0022C4
:100A8800E514249E601314601514601724F7601889
:100A9800240C7017120BDA801D120B948018120B9D
:100AA800A68013120BB8800E120BE7209008209135
:0B0AB80005AF141209B8AF14020BFFC9
:0D0BDA00C291C290AB08AA09A90A020AEB59
:100B9400C291C290AB0BAA0CA90D120AEBC290D25F
:020BA40091229C
:100BA600C291C290AB0EAA0FA910120AEBD290C244
:020BB60091228A
:100BB800C291C290AB11AA12A913120AEBD290D219
:020BC800912278
:0D0BE700C291C290AB15AA16A917020AEB25
:1009B8008F18E51424CFB40800503E9009D175F083
:1009C80003A4C58325F0C583730209E90209EC0273
:1009D80009EF0209F20209F50209F80209FB020906
:1009E800FE020C07020C0D020C10020C13020C166E
:0A09F800020C19020C1C120C1F2245
:060C0700A2A1B392A0229D
:030C0D00B2A1226F
:030C1000B2A2226B
:030C1300B2A32267
:030C1600B2A42263
:030C1900B2A5225F
:030C1C00B2A6225B
:030C1F00B2A72257
:100B2E0077656C636F6D650D0A7072657373206DFA
:0F0B3E0020746F20736565206D656E750D0A005C
:050B28000326FF0B2E67
:100B68007F807E257D007C00120A02120BF4AB26E2
:090B7800AA27A928120AEB80FE4D
:030000000208A54E
:0C08A500787FE4F6D8FD7581280208EC8D
:10093100BB010CE58229F582E5833AF583E022507B
:1009410006E92582F8E622BBFE06E92582F8E222C5
:0D095100E58229F582E5833AF583E49322DF
:10095E007401FF3395E0FEFDFC080808E6CF2FF684
:10096E0018E6CE3EF618E6CD3DF618E6CC3CF6225D
:10097E00D083D082E4937012740193700DA3A3936D
:10098E00F8740193F5828883E4737402936C701289
:10099E007403936D700C7404936E70067405936FEC
:0A09AE0060DDA3A3A3A3A3A380CAE6
:1008B100020B68E493A3F8E493A34003F68001F2EA
:1008C10008DFF48029E493A3F85407240CC8C33348
:1008D100C4540F4420C8834004F456800146F6DF17
:1008E100E4800B0102040810204080900B0FE47E8D
:1008F100019360BCA3FF543F30E509541FFEE4930C
:10090100A360010ECF54C025E060A840B8E493A3D2
:10091100FAE493A3F8E493A3C8C582C8CAC583CAFD
:10092100F0A3C8C582C8CAC583CADFE9DEE780BEB5
:010B2D0000C7
:00000001FF
