:1009D400438901758CFC758A50D28C308DFDC28C94
:0309E400C28D229F
:1009A0008F0B8E0A8D098C08780874FF12082FECC3
:0B09B0004D4E4F60051209D480EE226E
:080954008F0F8E0E8D0D8C0C2F
:10095C00780C74FF12082FEC4D4E4F60127BFAAFDF
:0F096C00031BEF70FA7BF7AF031BEF60E380F81C
:01097B002259
:030023000209E7E8
:1009E700309807C298859913C2B2309902C29932DA
:03000300020917D8
:10091700C0E0C0F0C083C082C0D075D000C000C0A6
:1009270001C002C003C004C005C006C007D2B2128E
:1009370008D0D007D006D005D004D003D002D0010C
:0D094700D000D0D0D082D083D0F0D0E032EC
:070A0B00D2A8D2AFD288226D
:1008870075985043892012084D08B200001C2008B3
:10089700B70000258008BC0000384008C100007080
:1008A7008008C30000E100000008C9758DFC8012B4
:1008B700758DFD800D758DFE8008800343878075DB
:0908C7008DFFD28ED2ACD2AF221B
:080A03008F993099FDC2992280
:06097C008B108A118912A4
:10098200E4FEAB10AA11A912EEFD3395E08D82F5BB
:0D09920083120800FF6006120A030E80E5C4
:01099F002235
:1008D000E51324CFB40800503D9008E775F003A459
:1008E000C58325F0C583730208FF020902020905CA
:1008F00002090802090B02090E020911020914B2C9
:10090000A022B2A122B2A222B2A322B2A422B2A5F4
:0709100022B2A622B2A722C9
:060A120068656C6C6F00CA
:1009BB007F807E257D007C00120887120A0B7BFF4F
:0909CB007A0A791212097C80FEFF
:030000000209F7FB
:0C09F700787FE4F6D8FD7581130209BB7F
:10080000BB010CE58229F582E5833AF583E02250AD
:1008100006E92582F8E622BBFE06E92582F8E222F7
:0D082000E58229F582E5833AF583E4932211
:10082D007401FF3395E0FEFDFC080808E6CF2FF6B6
:10083D0018E6CE3EF618E6CD3DF618E6CC3CF6228F
:10084D00D083D082E4937012740193700DA3A3939F
:10085D00F8740193F5828883E4737402936C7012BB
:10086D007403936D700C7404936E70067405936F1E
:0A087D0060DDA3A3A3A3A3A380CA18
:00000001FF
