:10087F007F807E257D007C001208001208A08F0863
:05088F001208A880F62C
:10080000759850438920120845082B00001C2008C9
:100810003000002580083500003840083A0000709C
:1008200080083C0000E10000000842758DFC801249
:10083000758DFD800D758DFE800880034387807562
:050840008DFFD28E22A5
:0708A0003098FDAF99C298EA
:0108A700222E
:0808A8008F993099FDC29922DD
:030000000208945F
:0C089400787FE4F6D8FD75810802087F2B
:10084500D083D082E4937012740193700DA3A393A7
:10085500F8740193F5828883E4737402936C7012C3
:100865007403936D700C7404936E70067405936F26
:0A08750060DDA3A3A3A3A3A380CA20
:00000001FF
