:09098100766563746F72200A00B0
:10091000120891120930E4FF1209497F7612094941
:100920007BFF7A09798112084D7F4212094980FEC6
:0808C0008F0F8E0E8D0D8C0CC4
:1008C800780C74FF12082FEC4D4E4F60127BFAAF74
:0F08D800031BEF70FA7BF7AF031BEF60E380F8B1
:0108E70022EE
:100949008F80D2A0C2A1D2A27F027E007D007C004E
:060959001208C0C2A22238
:10095F008F80C2A0C2A1D2A27F027E007D007C0048
:06096F001208C0C2A22222
:100930007F0112095F7F0212095F7F3812095F7F12
:090940000C12095F7F8002095FBF
:06084D008B088A09890AEC
:10085300E4F50BAB08AA09A90AAF0BEF3395E08FB8
:1008630082F5831208006025B40A077FC012095F6E
:100873008017AB08AA09A90AAF0BEF3395E08F8263
:0D088300F583120800FF120949050B80C61D
:010890002245
:1008E8000E1F111111111F000E1F1111111F1F00D2
:1008F8000E1F11111F1F1F000E1F111F1F111F0098
:080908000E1F1F1F1F1F1F001F
:100891007F4012095FE4F508AF08EF3395E0FE747D
:1008A100E82FF58274083EF583E493FF12094905A8
:0F08B10008C3E5086480948840DE7F8002095FF9
:030000000209757D
:0C097500787FE4F6D8FD75810F020910B0
:10080000BB010CE58229F582E5833AF583E02250AD
:1008100006E92582F8E622BBFE06E92582F8E222F7
:0D082000E58229F582E5833AF583E4932211
:10082D007401FF3395E0FEFDFC080808E6CF2FF6B6
:10083D0018E6CE3EF618E6CD3DF618E6CC3CF6228F
:00000001FF
