:0A0AF400120AD47F41120AA880FE06
:10080000EFD394035012EFC39400400CEDD3940740
:100810005006EDC3940050037FFF22EF14602E14A6
:10082000604C14606A240360030208B0EB700F048C
:10083000A805088002C333D8FCF45280807274018A
:10084000A805088002C333D8FC42808063EB700F98
:1008500004A805088002C333D8FCF4529080517478
:1008600001A805088002C333D8FC42908042EB7097
:100870000F04A805088002C333D8FCF452A08030CE
:100880007401A805088002C333D8FC42A08021EB84
:10089000700F04A805088002C333D8FCF452B0805E
:1008A0000FAF057401A807088002C333D8FC42B01B
:0308B0007F0022A4
:1008B300EFD394035012EFC39400400CEDD394078D
:1008C3005006EDC3940050037FFF22EF14602214FF
:1008D300603714604C24037060E580A8050880022B
:1008E300C313D8FC30E0047F0180027F00AE078091
:1008F30048E590A805088002C313D8FC30E0047FC4
:100903000180027F00AE078030E5A0A805088002C1
:10091300C313D8FC30E0047F0180027F00AE078060
:1009230018AF05E5B0A807088002C313D8FC30E070
:0B093300047F0180027F00AE07AF06CA
:01093E002296
:1009AB00EFD394035012EFC39400400CEDD3940794
:1009BB005006EDC3940050037FFF22EF146019140F
:1009CB0060251460312403703C7401A80508800273
:1009DB00C333D8FC4280802D7401A805088002C364
:1009EB0033D8FC4290801E7401A805088002C333E3
:1009FB00D8FC42A0800FAF057401A807088002C382
:080A0B0033D8FC42B07F002249
:10093F00EFD394045012EFC39400400CEDD39407FF
:10094F005006EDC3940050037FFF22EF14601A147A
:10095F006027146034240370407401A805088002D6
:10096F00C333D8FCF4528080307401A8050880028C
:10097F00C333D8FCF4529080207401A8050880027C
:10098F00C333D8FCF452A08010AF057401A8070838
:0C099F008002C333D8FCF452B07F002269
:100A1300EFD394035006EFC3940050037FFF22EFFC
:100A230014600E14600F1460102403700E8D808008
:0E0A33000A8D9080068DA080028DB07F00227B
:100A8900EF14600E14600F1460102403700EAE8012
:0E0A9900800AAE908006AEA08002AEB0AF061E
:010AA700222C
:080A41008F0B8E0A8D098C0851
:100A4900780874FF120A6BEC4D4E4F60127BFAAFB7
:0F0A5900031BEF70FA7BF7AF031BEF60E380F82E
:010A6800226B
:100AA8008F80D2A0C2A1D2A27F027E007D007C00EE
:060AB800120A41C2A22255
:100ABE008F80C2A0C2A1D2A27F027E007D007C00E8
:060ACE00120A41C2A2223F
:100AD4007F01120ABE7F02120ABE7F38120ABE7F4D
:040AE40080020ABEC4
:03000000020AE809
:0C0AE800787FE4F6D8FD75810B020AF45B
:100A69007401FF3395E0FEFDFC080808E6CF2FF678
:100A790018E6CE3EF618E6CD3DF618E6CC3CF62251
:00000001FF
