:1008EE0012090A7F807E257D007C0012086780FE3B
:1008670075985043892012082D089200001C200813
:100877009700002580089C0000384008A100007000
:100887008008A30000E100000008A9758DFC801214
:10089700758DFD800D758DFE8008800343878075FB
:0908A7008DFFD28ED2ACD2AF223B
:070915003098FDC298AF9974
:01091C0022B8
:08091D008F993099FDC2992267
:0608B0008B088A09890A89
:1008B600E4FEAB08AA09A90AEEFD3395E08D82F5A0
:0D08C60083120800FF600612091D0E80E578
:0108D3002202
:030023000208D4FC
:0708D400C0D075D000C00781
:0E08DB00309806C298AF998F99309902C29951
:0508E900D007D0D03261
:03000300020925CA
:03092500B2A0324B
:03001300020928B7
:03092800B2A13247
:0B090A00D2AAD2A8D2AFD28AD2882293
:030000000208FEF5
:0C08FE00787FE4F6D8FD75810B0208EE4F
:10080000BB010CE58229F582E5833AF583E02250AD
:1008100006E92582F8E622BBFE06E92582F8E222F7
:0D082000E58229F582E5833AF583E4932211
:10082D00D083D082E4937012740193700DA3A393BF
:10083D00F8740193F5828883E4737402936C7012DB
:10084D007403936D700C7404936E70067405936F3E
:0A085D0060DDA3A3A3A3A3A380CA38
:00000001FF
